{
  "transactions": [
    {
      "hash": "0xee5dc91f767907801cc7565e13c1a796f58b7d3d56e68f56f0e2de3e0c850f12",
      "transactionType": "CALL",
      "contractName": null,
      "contractAddress": "0x0eb5956b043a3cd95c0f050a86faff48b7aa28e7",
      "function": "transferOwnership(address)",
      "arguments": [
        "0xbD2A2DBaDb71BDaCDB9A51E8d1c33f31B412fC71"
      ],
      "transaction": {
        "from": "0x0920553cca188871b146ee79f562b4af46ab4f8a",
        "to": "0x0eb5956b043a3cd95c0f050a86faff48b7aa28e7",
        "gas": "0xa5c6",
        "value": "0x0",
        "input": "0xf2fde38b000000000000000000000000bd2a2dbadb71bdacdb9a51e8d1c33f31b412fc71",
        "nonce": "0xb",
        "chainId": "0x2105"
      },
      "additionalContracts": [],
      "isFixedGasLimit": false
    },
    {
      "hash": "0x295a4b383ebe908363a21fafdcdee6af0e942449d66d17f62409b45a36023d7b",
      "transactionType": "CALL",
      "contractName": null,
      "contractAddress": "0x09a4fefee8245b644713546fdf28b4160218f7fc",
      "function": "transferOwnership(address)",
      "arguments": [
        "0xbD2A2DBaDb71BDaCDB9A51E8d1c33f31B412fC71"
      ],
      "transaction": {
        "from": "0x0920553cca188871b146ee79f562b4af46ab4f8a",
        "to": "0x09a4fefee8245b644713546fdf28b4160218f7fc",
        "gas": "0xa60b",
        "value": "0x0",
        "input": "0xf2fde38b000000000000000000000000bd2a2dbadb71bdacdb9a51e8d1c33f31b412fc71",
        "nonce": "0xc",
        "chainId": "0x2105"
      },
      "additionalContracts": [],
      "isFixedGasLimit": false
    },
    {
      "hash": "0x82c6ebcfd120e932771528af531b56647a89d2500b47dad8d97e2bcf01ad4757",
      "transactionType": "CALL",
      "contractName": null,
      "contractAddress": "0xafa5382c8c634021f55cc680d45209a203bbfd92",
      "function": "transferOwnership(address)",
      "arguments": [
        "0xbD2A2DBaDb71BDaCDB9A51E8d1c33f31B412fC71"
      ],
      "transaction": {
        "from": "0x0920553cca188871b146ee79f562b4af46ab4f8a",
        "to": "0xafa5382c8c634021f55cc680d45209a203bbfd92",
        "gas": "0x9b80",
        "value": "0x0",
        "input": "0xf2fde38b000000000000000000000000bd2a2dbadb71bdacdb9a51e8d1c33f31b412fc71",
        "nonce": "0xd",
        "chainId": "0x2105"
      },
      "additionalContracts": [],
      "isFixedGasLimit": false
    }
  ],
  "receipts": [
    {
      "status": "0x1",
      "cumulativeGasUsed": "0x17fdce5",
      "logs": [
        {
          "address": "0x0eb5956b043a3cd95c0f050a86faff48b7aa28e7",
          "topics": [
            "0x8be0079c531659141344cd1fd0a4f28419497f9722a3daafe3b4186f6b6457e0",
            "0x0000000000000000000000000920553cca188871b146ee79f562b4af46ab4f8a",
            "0x000000000000000000000000bd2a2dbadb71bdacdb9a51e8d1c33f31b412fc71"
          ],
          "data": "0x",
          "blockHash": "0x1cd3933807672c4c05e57371ffffc7c0ca630117e1520e56c3871d23c79ff3f1",
          "blockNumber": "0x2c25eeb",
          "blockTimestamp": "0x6a0f1ab9",
          "transactionHash": "0x295a4b383ebe908363a21fafdcdee6af0e942449d66d17f62409b45a36023d7b",
          "transactionIndex": "0x95",
          "logIndex": "0x266",
          "removed": false
        }
      ],
      "logsBloom": "0x00000000000000000000000000000000000000000000000000800000000000000000000000000000000000000000000000000000000000000000000000000000000000000000000000000000000000000001000000000000000000000000000000800000000000000000000000000000000000000000200000000000000000400000002000000000000000000000000000000000000000000000000000000000000000000000000000000000000000000000000000000000000000000000000000000000000000000000000080000000000000000010004000000000000000000000000000000400000000000000000010000000000000000000000000040000",
      "type": "0x2",
      "transactionHash": "0x295a4b383ebe908363a21fafdcdee6af0e942449d66d17f62409b45a36023d7b",
      "transactionIndex": "0x95",
      "blockHash": "0x1cd3933807672c4c05e57371ffffc7c0ca630117e1520e56c3871d23c79ff3f1",
      "blockNumber": "0x2c25eeb",
      "gasUsed": "0x715a",
      "effectiveGasPrice": "0x5b8d80",
      "blobGasUsed": "0x39d0",
      "from": "0x0920553cca188871b146ee79f562b4af46ab4f8a",
      "to": "0x0eb5956b043a3cd95c0f050a86faff48b7aa28e7",
      "contractAddress": null,
      "daFootprintGasScalar": "0x94",
      "l1BaseFeeScalar": "0x8dd",
      "l1BlobBaseFee": "0x6be554",
      "l1BlobBaseFeeScalar": "0x101c12",
      "l1Fee": "0x46e03f2d",
      "l1GasPrice": "0x7442158",
      "l1GasUsed": "0x640"
    },
    {
      "status": "0x1",
      "cumulativeGasUsed": "0x1804e6e",
      "logs": [
        {
          "address": "0x09a4fefee8245b644713546fdf28b4160218f7fc",
          "topics": [
            "0x8be0079c531659141344cd1fd0a4f28419497f9722a3daafe3b4186f6b6457e0",
            "0x0000000000000000000000000920553cca188871b146ee79f562b4af46ab4f8a",
            "0x000000000000000000000000bd2a2dbadb71bdacdb9a51e8d1c33f31b412fc71"
          ],
          "data": "0x",
          "blockHash": "0x1cd3933807672c4c05e57371ffffc7c0ca630117e1520e56c3871d23c79ff3f1",
          "blockNumber": "0x2c25eeb",
          "blockTimestamp": "0x6a0f1ab9",
          "transactionHash": "0xee5dc91f767907801cc7565e13c1a796f58b7d3d56e68f56f0e2de3e0c850f12",
          "transactionIndex": "0x96",
          "logIndex": "0x267",
          "removed": false
        }
      ],
      "logsBloom": "0x00000000000000000000000000000000000000000000000000800000000000000000000000000000000000000000000000000000000000000000000000000000000000000000000000000000000000000001000000000000000000000000400000800000000000000000000000000000000000000000200000000000000000400000002000000000000000000000000000000000000100000000000000000000000000000000000000000000000004000000000000000000000000000000000000000000000000000000000000000000000000000010004000000000000000000000000000000000000000000000000000000000000000000000000000040000",
      "type": "0x2",
      "transactionHash": "0xee5dc91f767907801cc7565e13c1a796f58b7d3d56e68f56f0e2de3e0c850f12",
      "transactionIndex": "0x96",
      "blockHash": "0x1cd3933807672c4c05e57371ffffc7c0ca630117e1520e56c3871d23c79ff3f1",
      "blockNumber": "0x2c25eeb",
      "gasUsed": "0x7189",
      "effectiveGasPrice": "0x5b8d80",
      "blobGasUsed": "0x39d0",
      "from": "0x0920553cca188871b146ee79f562b4af46ab4f8a",
      "to": "0x09a4fefee8245b644713546fdf28b4160218f7fc",
      "contractAddress": null,
      "daFootprintGasScalar": "0x94",
      "l1BaseFeeScalar": "0x8dd",
      "l1BlobBaseFee": "0x6be554",
      "l1BlobBaseFeeScalar": "0x101c12",
      "l1Fee": "0x46e03f2d",
      "l1GasPrice": "0x7442158",
      "l1GasUsed": "0x640"
    },
    {
      "status": "0x1",
      "cumulativeGasUsed": "0x737f7d",
      "logs": [
        {
          "address": "0xafa5382c8c634021f55cc680d45209a203bbfd92",
          "topics": [
            "0x8be0079c531659141344cd1fd0a4f28419497f9722a3daafe3b4186f6b6457e0",
            "0x0000000000000000000000000920553cca188871b146ee79f562b4af46ab4f8a",
            "0x000000000000000000000000bd2a2dbadb71bdacdb9a51e8d1c33f31b412fc71"
          ],
          "data": "0x",
          "blockHash": "0x0000000000000000000000000000000000000000000000000000000000000000",
          "blockNumber": "0x2c25eec",
          "blockTimestamp": "0x6a0f1abb",
          "transactionHash": "0x82c6ebcfd120e932771528af531b56647a89d2500b47dad8d97e2bcf01ad4757",
          "transactionIndex": "0x34",
          "logIndex": "0x97",
          "removed": false
        }
      ],
      "logsBloom": "0x00000000000000000000000000000000000000000000000000800000000000000000000000000000000000000000000000000000000000000000000000000000000000000000000000000000000000000001000000000000000000000000000100800000000000000000000000000000000000000000200000000000000000400000002000000000000000000000000000000000000000000000000000000000000000000000000000000002000000000000000000000000000000000000000000000000000000000000000000000000000000000010004000080000000000000000000000000000000000000000000000000000000000000000000000040000",
      "type": "0x2",
      "transactionHash": "0x82c6ebcfd120e932771528af531b56647a89d2500b47dad8d97e2bcf01ad4757",
      "transactionIndex": "0x34",
      "blockHash": "0x0000000000000000000000000000000000000000000000000000000000000000",
      "blockNumber": "0x2c25eec",
      "gasUsed": "0x7095",
      "effectiveGasPrice": "0x5b8d80",
      "blobGasUsed": "0x39d0",
      "from": "0x0920553cca188871b146ee79f562b4af46ab4f8a",
      "to": "0xafa5382c8c634021f55cc680d45209a203bbfd92",
      "contractAddress": null,
      "daFootprintGasScalar": "0x94",
      "l1BaseFeeScalar": "0x8dd",
      "l1BlobBaseFee": "0x6be554",
      "l1BlobBaseFeeScalar": "0x101c12",
      "l1Fee": "0x46e03f2d",
      "l1GasPrice": "0x7442158",
      "l1GasUsed": "0x640"
    }
  ],
  "libraries": [],
  "pending": [],
  "returns": {},
  "timestamp": 1779374777719,
  "chain": 8453,
  "commit": "0cb01ed4"
}